{"abi":[{"type":"function","name":"getVerificationKeyHash","inputs":[],"outputs":[{"name":"","type":"bytes32","internalType":"bytes32"}],"stateMutability":"pure"},{"type":"function","name":"verify","inputs":[{"name":"_proof","type":"bytes","internalType":"bytes"},{"name":"_publicInputs","type":"bytes32[]","internalType":"bytes32[]"}],"outputs":[{"name":"","type":"bool","internalType":"bool"}],"stateMutability":"view"},{"type":"error","name":"INVALID_VERIFICATION_KEY","inputs":[]},{"type":"error","name":"MOD_EXP_FAILURE","inputs":[]},{"type":"error","name":"OPENING_COMMITMENT_FAILED","inputs":[]},{"type":"error","name":"PAIRING_FAILED","inputs":[]},{"type":"error","name":"PAIRING_PREAMBLE_FAILED","inputs":[]},{"type":"error","name":"POINT_NOT_ON_CURVE","inputs":[]},{"type":"error","name":"PUBLIC_INPUT_COUNT_INVALID","inputs":[{"name":"expected","type":"uint256","internalType":"uint256"},{"name":"actual","type":"uint256","internalType":"uint256"}]},{"type":"error","name":"PUBLIC_INPUT_GE_P","inputs":[]},{"type":"error","name":"PUBLIC_INPUT_INVALID_BN128_G1_POINT","inputs":[]}],"bytecode":{"object":"0x608060405234801561001057600080fd5b50620100006103805260206103a0527eeeb2cb5981ed45649abebde081dcff16c8601de4347e7dd1628ba2daac43b76103c0527f30641e0e92bebef818268d663bcad6dbcfd6c0149170f6d7d350b1b1fa6c10016103e0527f266de7a5a6aee1abcd1daec501160576c83534a9c2b22b1a3772e6ed105f1a2d610400527f11e1b709ffe9ec2e42871a36fde21154148355d08801348c3e6d7987de8c962d610420527f2d2eccfced96cbd6fa190cd302346e19028e124aa9114e28a34bd3a532311afa610440527f04e391537e46e0bbcfc23b39f36fcfede761c3549f257243bb0399d7a86fcb68610460527f1f158b70892a0b50ff45d7d55dd436e242081a369081ccca393e2bb34c577f0f610480527f15644560e5d7e8b4592afeac09c432bad812bc8342d44e0fd2ebbadd1c2a09916104a0527f1996c80ac568ac26419c95a45d5af823d1bc961c17c94e89bdd5c7d47884016c6104c0527f0aadd4f920aef86d76570300eb3110375ff6181843f78274696036993a03bbc86104e0527f063e4d6afdf7521c75e26afaac0207a78e29b8396a1a407ff902bb8045d68c40610500527f1a1d3cef20f8e1c4b69c0596cffac6f3c2c2c4a729b04146d009cbe50c117a46610520527ed1162f1fd88171734a0b194408ee5be876a868a3f7bf6cb37be06efc10836b610540527f18be3e21b1d9dbd9e9ab39f4e2bbfe43a63180b3e8676386499b04c735df3a9c610560527f02db4c98190f95801712f489dd4b81d79116a2cfd416250164ecef7569bb1415610580527f0340879dcdd8a55ab4b2bd65f9e4985b4a6c90a60b304310883d096027524df16105a0527f03966ec1fe37265628426888e8379f098a5548fc63be04939418e3fb6ea027236105c0527f225f9d0c63c1e4840ca63cb187c97a5b23354a98077c38537c1cab764258ffdb6105e0527f21245d6c0a4d2ff12b21a825f39f30e8f8cf9b259448d111183e975828539576610600527f16a409532c8a1693536e93b6ce9920bfc2e6796e8dfe404675a0cdf6ee77ee7a610620527f2f213c7a4c064a63d6a07366df0ea85aef9ad2125a188c3e656f95471e416a0a610640527f067a270bed55e72ffb3cfa39af3e5b8bcb4961d72bb301978af13c4ddc73e5df610660527f1e131807ed17895e37c21d35ea619241cbd1bb281a813d1145ab383b940ed1b0610680527f0b1b3426952954c99d75c572922856e83bb7042dfe2431bec710f6357bee76046106a0527f2b55c9d17d8292c2aefac6fa2f7d03e25654a57a0b5bf5e899101ac3114d5b836106c0527f12cadb539fa0dd7356ac56b9bac24ed0b57567ad64172379e8fe3fffb8705c6c6106e0527f1fb1df1ee7db02fe1af39a65ef9268e832a643f8f00d0b6f1592e8fad69d24f4610700527f13b9c33fcafe8cc7d0cd3a5e282fae99af62be346c37f574ed205e5773f3f40d610720527f27069826710ed7f159e67ab0a68377d6470cf2bf2172ee1563a23d39db3407b7610740527f1f7061016fe70019e960dcedc93e27f8a38f6d70875793fa3f4fe3727bf84c58610760527f179d784ddf9483351fad41f4cfb3180e556973dc107dc87e9914abd00dcfa1b1610780527f0a65e74b474718b0cb8043103d4e5f01a4d613220ae46cd6a70328e004e657706107a0527ec31191d16fe1292931fc0735c7fdacdb34d999c2ce09289fd45118ed2a1e9b6107c0527f27f8cc831456c4f69cd53e30793bf518699e9231670e0a07bcb0b32270734bb96107e0527f242445ef32ec1be0c2171f65d19f7dd07e0d87331c95207038e151a55ce75c73610800527f25c62f92efda052ba683f50821f419cf28ca431b22752c14641058f63eddd782610820527f2e71726ec1632f85b7ead76912e828d0c83b65cf7877d92b66c23758dcd98ba1610840527f0e28c5a4f595724298e4f56ac35c31faa6fb86fe4ed100fae58e637557d2a192610860527f29ce57aba000e1a1b1e37d30059833f7b0e9892b9011a496e4e077fb4ffb4a5a610880527f066f5138b366274d7e149afa53ad078730c8342295e90c6e61e35f7f826460de6108a0527f2d741db488554c917bf59b9bdf122836eb1571e1e8f33e45a287fa4296b60a406108c0527f1c2cd2ba7b75709b4e30b2782069292b47d87c43933fe4a05b0f37346a45995e6108e0527f3053011adc59dfa0b4d8ec2fa108ceaa1a052b03743cebd0628ffc2f4bb0a914610900527f2a80961b9c3cd69ee59ec17636dee60d0ed4305030dd3faae19bf88a84dd4281610920527f2323bc68a15a929c880fc5b8d73c8db46f59e5a244bb2409a2f232d51950a2ba610940527f1910e4a67896a5d221fc81b71b76f62c4daf935ec46f8048def0a35e69e5b993610960527f1da82058666a9684ef77ae78c197a2568395dfaa41aaa4754f6cfbdc0d4e3da5610980527f125cac2cdaf596ebc78bebcee43db236928ba2aa7a9291e9f8809e113b93d9dc6109a05260006109c08190526109e0527f260e01b251f6f1c7e7ff4e580791dee8ea51d87a358e038b4efe30fac09383c1610a00527f0118c4d5b837bcc2bc89b5b398b5974e9f5944073b32078b7e231fec938883b0610a20527f04fc6369f7110fe3d25156c1bb9a72859cf2a04641f99ba4ee413c80da6a5fe4610a40527f22febda3c0c0632a56475b4214e5615e11e6dd3f96e6cea2854a87d4dacc5e55610a60527f0b5d56b77fe704e8e92338c0082f37e091126414c830e4c6922d5ac802d842d4613300527f30644e72e131a029b85045b68181585d97816a916871ca8d3c208c16d87cfd47600161040051610420518382830984600386838609088583840914841693505050506104405161046051838283098460038683860908858384091484169350505050610480516104a0518382830984600386838609088583840914841693505050506104c0516104e051838283098460038683860908858384091484169350508160005280602052505061050051610520518382830984600386838609088583840914841693505050506105405161056051838283098460038683860908858384091484169350505050610580516105a0518382830984600386838609088583840914841693505050506105c0516105e05183828309846003868386090885838409148416935050505061060051610620518382830984600386838609088583840914841693505050506106405161066051838283098460038683860908858384091484169350505050610680516106a0518382830984600386838609088583840914841693505050506106c0516106e05183828309846003868386090885838409148416935050505061070051610720518382830984600386838609088583840914841693505050506107405161076051838283098460038683860908858384091484169350505050610780516107a0518382830984600386838609088583840914841693505050506107c0516107e05183828309846003868386090885838409148416935050505061080051610820518382830984600386838609088583840914841693505050506108405161086051838283098460038683860908858384091484169350505050610880516108a0518382830984600386838609088583840914841693505050506108c0516108e05183828309846003868386090885838409148416935050505061090051610920518382830984600386838609088583840914841693505050506109405161096051838283098460038683860908858384091484169350505050610980516109a05183828309846003868386090885838409148416935050505080610af257637e5769bf60e01b60005260046000fd5b5050612c3080610b036000396000f3fe608060405234801561001057600080fd5b50600436106100365760003560e01c8063937f6a101461003b578063ea50d0e41461006e575b600080fd5b6040517f4912fc1d0fd899bec05a914f0eaae90ead47c422b115e1acfbc23aec2af19b3d81526020015b60405180910390f35b61008161007c366004612b35565b610091565b6040519015158152602001610065565b620100006103805260206103a0527eeeb2cb5981ed45649abebde081dcff16c8601de4347e7dd1628ba2daac43b76103c0527f30641e0e92bebef818268d663bcad6dbcfd6c0149170f6d7d350b1b1fa6c10016103e0527f266de7a5a6aee1abcd1daec501160576c83534a9c2b22b1a3772e6ed105f1a2d610400527f11e1b709ffe9ec2e42871a36fde21154148355d08801348c3e6d7987de8c962d610420527f2d2eccfced96cbd6fa190cd302346e19028e124aa9114e28a34bd3a532311afa610440527f04e391537e46e0bbcfc23b39f36fcfede761c3549f257243bb0399d7a86fcb68610460527f1f158b70892a0b50ff45d7d55dd436e242081a369081ccca393e2bb34c577f0f610480527f15644560e5d7e8b4592afeac09c432bad812bc8342d44e0fd2ebbadd1c2a09916104a0527f1996c80ac568ac26419c95a45d5af823d1bc961c17c94e89bdd5c7d47884016c6104c0527f0aadd4f920aef86d76570300eb3110375ff6181843f78274696036993a03bbc86104e0527f063e4d6afdf7521c75e26afaac0207a78e29b8396a1a407ff902bb8045d68c40610500527f1a1d3cef20f8e1c4b69c0596cffac6f3c2c2c4a729b04146d009cbe50c117a46610520527ed1162f1fd88171734a0b194408ee5be876a868a3f7bf6cb37be06efc10836b610540527f18be3e21b1d9dbd9e9ab39f4e2bbfe43a63180b3e8676386499b04c735df3a9c610560527f02db4c98190f95801712f489dd4b81d79116a2cfd416250164ecef7569bb1415610580527f0340879dcdd8a55ab4b2bd65f9e4985b4a6c90a60b304310883d096027524df16105a0527f03966ec1fe37265628426888e8379f098a5548fc63be04939418e3fb6ea027236105c0527f225f9d0c63c1e4840ca63cb187c97a5b23354a98077c38537c1cab764258ffdb6105e0527f21245d6c0a4d2ff12b21a825f39f30e8f8cf9b259448d111183e975828539576610600527f16a409532c8a1693536e93b6ce9920bfc2e6796e8dfe404675a0cdf6ee77ee7a610620527f2f213c7a4c064a63d6a07366df0ea85aef9ad2125a188c3e656f95471e416a0a610640527f067a270bed55e72ffb3cfa39af3e5b8bcb4961d72bb301978af13c4ddc73e5df610660527f1e131807ed17895e37c21d35ea619241cbd1bb281a813d1145ab383b940ed1b0610680527f0b1b3426952954c99d75c572922856e83bb7042dfe2431bec710f6357bee76046106a0527f2b55c9d17d8292c2aefac6fa2f7d03e25654a57a0b5bf5e899101ac3114d5b836106c0527f12cadb539fa0dd7356ac56b9bac24ed0b57567ad64172379e8fe3fffb8705c6c6106e0527f1fb1df1ee7db02fe1af39a65ef9268e832a643f8f00d0b6f1592e8fad69d24f4610700527f13b9c33fcafe8cc7d0cd3a5e282fae99af62be346c37f574ed205e5773f3f40d610720527f27069826710ed7f159e67ab0a68377d6470cf2bf2172ee1563a23d39db3407b7610740527f1f7061016fe70019e960dcedc93e27f8a38f6d70875793fa3f4fe3727bf84c58610760527f179d784ddf9483351fad41f4cfb3180e556973dc107dc87e9914abd00dcfa1b1610780527f0a65e74b474718b0cb8043103d4e5f01a4d613220ae46cd6a70328e004e657706107a0527ec31191d16fe1292931fc0735c7fdacdb34d999c2ce09289fd45118ed2a1e9b6107c0527f27f8cc831456c4f69cd53e30793bf518699e9231670e0a07bcb0b32270734bb96107e0527f242445ef32ec1be0c2171f65d19f7dd07e0d87331c95207038e151a55ce75c73610800527f25c62f92efda052ba683f50821f419cf28ca431b22752c14641058f63eddd782610820527f2e71726ec1632f85b7ead76912e828d0c83b65cf7877d92b66c23758dcd98ba1610840527f0e28c5a4f595724298e4f56ac35c31faa6fb86fe4ed100fae58e637557d2a192610860527f29ce57aba000e1a1b1e37d30059833f7b0e9892b9011a496e4e077fb4ffb4a5a610880527f066f5138b366274d7e149afa53ad078730c8342295e90c6e61e35f7f826460de6108a0527f2d741db488554c917bf59b9bdf122836eb1571e1e8f33e45a287fa4296b60a406108c0527f1c2cd2ba7b75709b4e30b2782069292b47d87c43933fe4a05b0f37346a45995e6108e0527f3053011adc59dfa0b4d8ec2fa108ceaa1a052b03743cebd0628ffc2f4bb0a914610900527f2a80961b9c3cd69ee59ec17636dee60d0ed4305030dd3faae19bf88a84dd4281610920527f2323bc68a15a929c880fc5b8d73c8db46f59e5a244bb2409a2f232d51950a2ba610940527f1910e4a67896a5d221fc81b71b76f62c4daf935ec46f8048def0a35e69e5b993610960527f1da82058666a9684ef77ae78c197a2568395dfaa41aaa4754f6cfbdc0d4e3da5610980527f125cac2cdaf596ebc78bebcee43db236928ba2aa7a9291e9f8809e113b93d9dc6109a05260006109c08190526109e08190527f260e01b251f6f1c7e7ff4e580791dee8ea51d87a358e038b4efe30fac09383c1610a00527f0118c4d5b837bcc2bc89b5b398b5974e9f5944073b32078b7e231fec938883b0610a20527f04fc6369f7110fe3d25156c1bb9a72859cf2a04641f99ba4ee413c80da6a5fe4610a40527f22febda3c0c0632a56475b4214e5615e11e6dd3f96e6cea2854a87d4dacc5e55610a60527f0b5d56b77fe704e8e92338c0082f37e091126414c830e4c6922d5ac802d842d4613300526103a05182811461088557604051637667dc9b60e01b8152600481018290526024810184905260440160405180910390fd5b7f30644e72e131a029b85045b68181585d97816a916871ca8d3c208c16d87cfd477f30644e72e131a029b85045b68181585d2833e84879b9709143e1f593f00000016024600435018281350661122052826020820135066112005282604082013506611260528260608201350661124052826080820135066112a0528260a082013506611280528260c0820135066112e0528260e0820135066112c05282610100820135066113205282610120820135066113005282610140820135066113605282610160820135066113405282610180820135066113a052826101a08201350661138052826101c0820135066113e052826101e0820135066113c05282610200820135066114205282610220820135066114005282610240820135066114605282610260820135066114405282610280820135066114a052826102a08201350661148052816102c08201350661160052816102e0820135066116205281610300820135066116405281610320820135066116605281610340820135066116805281610360820135066116a05281610380820135066116c052816103a0820135066116e052816103c08201350661170052816103e0820135066117205281610400820135066117405281610420820135066117605281610440820135066117805281610460820135066117a05281610480820135066117c052816104a0820135066117e052816104c08201350661180052816104e0820135066119605281610500820135066119805281610520820135066119a05281610540820135066119c052816105608201350661184052816105808201350661186052816105a08201350661188052816105c0820135066118a052816105e0820135066118c05281610600820135066118e05281610620820135066119005281610640820135066119205281610660820135066119405281610680820135066119e052816106a08201350661200052816106c08201350661202052816106e0820135066120405281610700820135066120605281610720820135066120805281610740820135066120a05281610760820135066120c05281610780820135066120e052816107a08201350661210052816107c08201350661212052826107e08201350661232052826108008201350661230052826108208201350661236052826108408201350661234052506109c05115610ce7576024803501806109e05160051b0190508035602082013560441b81019050604082013560881b81019050606082013560cc1b81019050608082013560a083013560441b8101905060c083013560881b8101905060e083013560cc1b8101905061010083013561012084013560441b8101905061014084013560881b8101905061016084013560cc1b810190506101808401356101a085013560441b810190506101c085013560881b810190506101e085013560cc1b810190508361340052826134205281613440528061346052868110878410168783108886101616610ce1576375d4fa5360e11b60005260046000fd5b50505050505b6103805160e01b6000526103a05160e01b60045260086000208061348052602480350160206103a05102808260206134800137600435602401915060c0826134a083013760e0016134802083810661266081905290925090508281800961268052828161268051096126a05250806000526112e0516020526112c051604052611320516060526113005160805260a0600020905081810661260052806000526001602053506021600090812082810661262052815261136051602052611340516040526113a0516060526113805160805260a09020818106612640819052828180096133205282816133205109613340528281613340510961336052806133805250806000526113e0516020526113c05160405261142051606052611400516080526114605160a0526114405160c0526114a05160e052611480516101005261012060002090508181066126c052806126e0525061260051612620516103c051600180856001602480350160206103a0510281018360058a0984600c8b0999505b81831015610ea757823585811085169450858a82089050858183018909975085818c01880996505084888209905084888b099950602083019250610e68565b50505080610ec05763374a972f60e01b60005260046000fd5b50508161300052806130205250505050508081600161260051086126205109806103805160015b81811015610efc578483840992508001610ee7565b5050613100528181800990508181820961312052506126c05161038051819060015b81811015610f33578483840992508001610f1e565b50508061304052826001840382089050613300518084036103e051858286088684840992508687848808820990508684840992508687848808820990508687888686098808820990506103c051925086828609915086600188038708878485099450876001890389898b888d8b8c0909090896506130205194508493508782860994508488878709955085898388099650868a61312051890997508760206000526020805260206040528b8b8a0960605260028c036080528b60a0526020600060c0600060055afa61101057633e2529ef60e21b60005260046000fd5b60005198508b818a0990508b8b8a0998508b828a0991508b613120518a0998508b838a0992508b858a0998508b848a0993508b8a8a0998508b888a0997508b868a0998508b613020518d8b8c090998508b896130005109613060528b888b09613080528b848709613680528b8388096130a0528b826131005109613140528b8188096130c052505050505050505050505061264051506126005161262051828361190051840982611620510101846118e051850983611600510101098384611940518509836116605101018561192051860984611640510101098485868385096116a051096133805109858661198051870985611620510101876119605188098661160051010109925085866119c051870985611660510101876119a0518809866116405101010991508586878885870961208051096133805109870382089050856126405161338051096133805285868788613060518a0361208051086130c0510961338051098208905085612640516133805109613380528586878860018a036116a051086130a05109613380510982086135005250505050508061264051613380510961338052806117205161266051098182836120205161178051096116405108820890508161266051820990508182836120005161176051096116205108820890508161266051820990508182836119e0516117005109611600510882089050816118405183846126605161186051098586612680516118805109876126a0516118a05109080808826120c0518485612660516120e051098687612680516121005109886126a051612120510908080883846001612600510861262051098461262051866118c051870908935084818687612600518609860808925084838509935084856001612600510885099350846130a05161264051099250848385089350846116c0518509935084838603850893508481868761260051612060510961168051080892505050826130c05161332051098381850383089150836120a05183099150838461314051830983089150508261338051848386038508096135205250508061334051613380510961338052806116e0516116005109816117005161162051098261172051611640510983611740516116605109847f183227397098d014dc2822db40c0ac2e9419f4243cdcb848a1f0fac9f80000008687600389036117a0510888611760518a6116205161160051090909098586878889858a08880886088408611780510894505050505081828384856116605161160051086119e051870308611760510884600286036117a05108096126405109828384858685612040510887600189036117a051080985086117a05109613380510961354052505080613320516133805109613380526002810360038203826116005184036116205108836116205185036116405108846116405186036116605108856116605187036119e05108866133805188898888088a8b8b8a088c8a8e038e8c8d09080909099350868788612640516133805109898a8988088b8c8c8a088d8a8f038f8c8d090809090985089350868788613320516133805109898a8987088b8c8c89088d898f038f8b8c090809090985089350868788613340516133805109898a8986088b8c8c88088d888f038f8a8b090809090985089350505050836117c051820961356052505061336051613380518392500961338052806116205182036119e051088161204051612040510982611640516116405109836116e05185612040516116405109098485868384088785870888030886878788098889611620516119e0510861200051080908925050508261338051848561176051870360010884090990508261202051611640510883611640518503856116e05161204051090884858287611620518903612000510809868685090893505050828361264051613380510984856117605187036001088509099150826117e0518484840809613580525050806116205161162051098161164051611640510982611620518460118408098360048309915083600982099050836003840992508381850385848788611620516116205108612000510809089150508283846120205161164051088561164051611640510809840384856120005187036116205108850908915082613380518209905082836126405161338051098309915082611760518209905082611760518309915082836117e0518585850809613580510861358052505080613360516133805109613380528081611620516119e05109826120005161160051090881612020518303838461164051611620510985611660516116005109080882600160441b82099050826120405184038208905082828208905082611740518209905082600160441b830991508283612000516119e05109830891508261172051848561166051611640510886038508098361176051858661204051612020510887038761166051880808099250836117005185858786860808096135c0525050612000518291506140009009816119e0518208905081614000820990508161164051820890508161400082099050816116205182089050816140008209905081611600518208905081611660518303820890508161174051820990508161400061202051098261200051820890508261400082099050826119e05182089050826140008209905082611660518208905082614000820990508261164051820890508261204051840382089050826117605182099050826117205184838508096135e0525050806126605161164051098161162051820890508161266051820990508161160051820890508161266051820990508161178051820890508082611660518403830891508161364052826116005184036119e05108836116605185036120405108848560018703840883098586848803600108830991508585876126405189858b61264051890908090861362052856126605161202051099450856120005186089450856126605186099450856119e0518608945085612660518609945085858703612040510894508561164051870361202051089150858687878903600108840987858903600108099150858487036116605108868760018903830882099050868760018903880887099550866126405184099250868284089250866126405184099250868684089250866126405184099250868184089250508161360052505083611620518503612000510892508361164051850385868488036001088609089250836117005161362051099150838461174051850983089150838461176051613640510983089150836116e0518309915083846117a051613600510983089150836135c05183089250836135e05184089250836118005184099250836133805184099250826135a05283613340516133805109613380525050508061368051826135a0518461358051866135605188613540518a61352051613500510808080808096136608190526126e0516136a08190526136c0919091526102e460043501610520816136e03750506105606136a020818106612700526000819052600160205381602160002006612720526002602053816021600020066127405260036020538160216000200661276052600460205381602160002006612780526005602053816021600020066127a0526006602053816021600020066127c0526007602053816021600020066127e0526008602053816021600020066128005260096020538160216000200661282052600a6020538160216000200661284052600b6020538160216000200661286052600c6020538160216000200661288052600d602053816021600020066128a052600e602053816021600020066128c052600f602053816021600020066128e05260106020538160216000200661290052601160205381602160002006612920526012602053816021600020066129405260136020538160216000200661296052601460205381602160002006612980526015602053816021600020066129a0526016602053816021600020066129c0526017602053816021600020066129e052601860205381602160002006612a0052601960205381602160002006612a2052601a60205381602160002006612a4052601b60205381602160002006612a6052601c60205381602160002006612a8052601d60205381602160002006612aa052601d6020535060216000908120828106612ac05281526123205160205261230051604052612360516060526123405160805260a08120829006612b00526113c0516113e0518482800985600387838609088683840914611c77576328f6b59560e21b60005260046000fd5b50613160919091526131805261140051611420518482800985600387838609088683840914611cb1576328f6b59560e21b60005260046000fd5b50816000528060205250506130405160405260406131a06060600060075afa90506040613160608061316060065afa8116905061144051611460518482830985600387838609088683840914611d12576328f6b59560e21b60005260046000fd5b50600091909152602052613040518290800960405260406131a06060600060075afa16604061316060808160065afa81169050611480516114a0518482830985600387838609088683840914611d73576328f6b59560e21b60005260046000fd5b50600091909152602052613040518290818180090960405260406131a06060600060075afa16604061316060808160065afa8116905061120051611220518482830985600387838609088683840914611dd7576328f6b59560e21b60005260046000fd5b50816000528060205250508161270051836001612b0051080960405260406131a06060600060075afa16604061316060808160065afa8116905061124051611260518482830985600387838609088683840914611e3f576328f6b59560e21b60005260046000fd5b50816000528060205250508161272051836001612b0051080960405260406131a06060600060075afa16604061316060808160065afa81169050611280516112a0518482830985600387838609088683840914611ea7576328f6b59560e21b60005260046000fd5b50816000528060205250508161274051836001612b0051080960405260406131a06060600060075afa16604061316060808160065afa811690506112c0516112e0518482830985600387838609088683840914611f0f576328f6b59560e21b60005260046000fd5b50816000528060205250508161276051836001612b0051080960405260406131a06060600060075afa16604061316060808160065afa8116905061130051611320518482830985600387838609088683840914611f77576328f6b59560e21b60005260046000fd5b50816000528060205250508161278051836001612b0051080960405260406131a06060600060075afa16604061316060808160065afa8116905061134051611360518482830985600387838609088683840914611fdf576328f6b59560e21b60005260046000fd5b5081600052806020525050816127a051836001612b0051080960405260406131a06060600060075afa16604061316060808160065afa81169050611380516113a0518482830985600387838609088683840914612047576328f6b59560e21b60005260046000fd5b5081600052806020525050816127c051836001612b0051080960405260406131a06060600060075afa16604061316060808160065afa811690506104005161042051816000528060205250506127e05160405260406131a06060600060075afa16604061316060808160065afa811690506104405161046051816000528060205250506128005160405260406131a06060600060075afa16604061316060808160065afa81169050610480516104a051816000528060205250506128205160405260406131a06060600060075afa16604061316060808160065afa811690506104c0516104e051816000528060205250506128405160405260406131a06060600060075afa16604061316060808160065afa811690506105005161052051816000528060205250506128605160405260406131a06060600060075afa16604061316060808160065afa811690506105405161056051816000528060205250506128805160405260406131a06060600060075afa16604061316060808160065afa81169050610580516105a051816000528060205250506128a05160405260406131a06060600060075afa16604061316060808160065afa811690506105c0516105e051816000528060205250506128c05160405260406131a06060600060075afa16604061316060808160065afa811690506106005161062051816000528060205250506128e05160405260406131a06060600060075afa16604061316060808160065afa811690506106405161066051816000528060205250506129005160405260406131a06060600060075afa16604061316060808160065afa81169050610680516106a051816000528060205250506129205160405260406131a06060600060075afa16604061316060808160065afa811690506106c0516106e051816000528060205250506129405160405260406131a06060600060075afa16604061316060808160065afa811690506107005161072051816000528060205250506129605160405260406131a06060600060075afa16604061316060808160065afa811690506107405161076051816000528060205250506129805160405260406131a06060600060075afa16604061316060808160065afa81169050610780516107a05181600052806020525050816129a051836001612b0051080960405260406131a06060600060075afa16604061316060808160065afa811690506107c0516107e05181600052806020525050816129c051836001612b0051080960405260406131a06060600060075afa16604061316060808160065afa81169050610800516108205181600052806020525050816129e051836001612b0051080960405260406131a06060600060075afa16604061316060808160065afa8116905061084051610860518160005280602052505081612a0051836001612b0051080960405260406131a06060600060075afa16604061316060808160065afa81169050610880516108a05181600052806020525050612a205160405260406131a06060600060075afa16604061316060808160065afa811690506108c0516108e05181600052806020525050612a405160405260406131a06060600060075afa16604061316060808160065afa81169050610900516109205181600052806020525050612a605160405260406131a06060600060075afa16604061316060808160065afa81169050610940516109605181600052806020525050612a805160405260406131a06060600060075afa16604061316060808160065afa81169050610980516109a05181600052806020525050612aa05160405260406131a06060600060075afa16604061316060808160065afa8116905081826116005184612b00516119e051090861270051098283846116205186612b00516120005109086127205109820890508283846116405186612b00516120205109086127405109820890508283846116605186612b00516120405109086127605109820890508283846116805186612b00516120605109086127805109820890508283846116a05186612b00516120805109086127a05109820890508283846116c05186612b00516120a05109086127c051098208905082836116e0516127e051098208905082836117005161280051098208905082836117205161282051098208905082836117405161284051098208905082836117605161286051098208905082836117805161288051098208905082836117a0516128a051098208905082836117c0516128c051098208905082836117e0516128e051098208905082836118005161290051098208905082836119605161292051098208905082836119805161294051098208905082836119a05161296051098208905082836119c0516129805109820890508283846118405186612b00516120c05109086129a05109820890508283846118605186612b00516120e05109086129c05109820890508283846118805186612b00516121005109086129e05109820890508283846118a05186612b0051612120510908612a0051098208905082836118c051612a2051098208905082836118e051612a40510982089050828361190051612a60510982089050828361192051612a80510982089050828361194051612aa0510982089050826136605182089050600160005260026020528083036040525060406131a06060600060075afa16604061316060808160065afa168061282657634e71976360e01b60005260046000fd5b612b00516126c0516123005161232051868283098760038983860908888384091461285c576328f6b59560e21b60005260046000fd5b50816000528060205250508060405260406131a06060600060075afa92506040613160608061316060065afa83169250612340516123605186828309876003898386090888838409146128ba576328f6b59560e21b60005260046000fd5b5081600052806020525050836103c05185838509096040525060406131a06060600060075afa821691506040613220608061316060065afa8216915061230051600052612320516020526123405160405261236051606052806080526040806060604060075afa8216915060406131e06080600060065afa82169150613200518403613200526109c05115612a1b5761340051613420518582830986600388838609088783840914612977576328f6b59560e21b60005260046000fd5b50600091909152602052828180096040526040606080600060075afa82169150613440516134605185828309866003888386090887838409146129c5576328f6b59560e21b60005260046000fd5b50600091825260205260409060608160075afa821691506132205160a0526132405160c05260406132206080606060065afa821691506131e0516040526132005160605260406131e06080600060065afa821691505b5080612a32576301882d8160e01b60005260046000fd5b61322051600052613240516020527f198e9393920d483a7260bfb731fb5d25f1aa493335a9e71297e485b7aef312c26040527f1800deef121f1e76426a00665e5c4479674322d4f75edadd46debd5cd992f6ed6060527f090689d0585ff075ec9e99ad690c3395bc4b313370b38ef355acdadcd122975b6080527f12c85ea5db8c6deb4aab71808dcb408fe3d1e7690c43d37b4ce6cc0166fa7daa60a0526131e05160c0526132005160e052610a005161010052610a205161012052610a405161014052610a60516101605260206000610180600060085afa90506000518116612b275763d71fd26360e01b60005260046000fd5b505050600160005260206000f35b60008060008060408587031215612b4b57600080fd5b843567ffffffffffffffff80821115612b6357600080fd5b818701915087601f830112612b7757600080fd5b813581811115612b8657600080fd5b886020828501011115612b9857600080fd5b602092830196509450908601359080821115612bb357600080fd5b818701915087601f830112612bc757600080fd5b813581811115612bd657600080fd5b8860208260051b8501011115612beb57600080fd5b9598949750506020019450505056fea264697066735822122051f5ae8caf0e4f315f4934b6fc6f5828d2aeceaeae474f5f9e96a3644a20e6bd64736f6c63430008190033","linkReferences":{}},"methodIdentifiers":{"getVerificationKeyHash()":"937f6a10","verify(bytes,bytes32[])":"ea50d0e4"},"id":0}