{"abi":[{"type":"constructor","inputs":[{"name":"_verifierAddress","type":"address","internalType":"address"}],"stateMutability":"nonpayable"},{"type":"function","name":"allowance","inputs":[{"name":"owner","type":"address","internalType":"address"},{"name":"spender","type":"address","internalType":"address"}],"outputs":[{"name":"","type":"uint256","internalType":"uint256"}],"stateMutability":"view"},{"type":"function","name":"approve","inputs":[{"name":"spender","type":"address","internalType":"address"},{"name":"value","type":"uint256","internalType":"uint256"}],"outputs":[{"name":"","type":"bool","internalType":"bool"}],"stateMutability":"nonpayable"},{"type":"function","name":"balanceOf","inputs":[{"name":"account","type":"address","internalType":"address"}],"outputs":[{"name":"","type":"uint256","internalType":"uint256"}],"stateMutability":"view"},{"type":"function","name":"decimals","inputs":[],"outputs":[{"name":"","type":"uint8","internalType":"uint8"}],"stateMutability":"view"},{"type":"function","name":"deposit","inputs":[],"outputs":[],"stateMutability":"payable"},{"type":"function","name":"name","inputs":[],"outputs":[{"name":"","type":"string","internalType":"string"}],"stateMutability":"view"},{"type":"function","name":"nullifiers","inputs":[{"name":"nullifier","type":"bytes32","internalType":"bytes32"}],"outputs":[{"name":"","type":"bool","internalType":"bool"}],"stateMutability":"view"},{"type":"function","name":"remint","inputs":[{"name":"wad","type":"uint256","internalType":"uint256"},{"name":"nullifier","type":"bytes32","internalType":"bytes32"},{"name":"blockHeaderRLP","type":"bytes","internalType":"bytes"},{"name":"snarkProof","type":"bytes","internalType":"bytes"}],"outputs":[],"stateMutability":"nonpayable"},{"type":"function","name":"symbol","inputs":[],"outputs":[{"name":"","type":"string","internalType":"string"}],"stateMutability":"view"},{"type":"function","name":"totalSupply","inputs":[],"outputs":[{"name":"","type":"uint256","internalType":"uint256"}],"stateMutability":"view"},{"type":"function","name":"transfer","inputs":[{"name":"to","type":"address","internalType":"address"},{"name":"value","type":"uint256","internalType":"uint256"}],"outputs":[{"name":"","type":"bool","internalType":"bool"}],"stateMutability":"nonpayable"},{"type":"function","name":"transferFrom","inputs":[{"name":"from","type":"address","internalType":"address"},{"name":"to","type":"address","internalType":"address"},{"name":"value","type":"uint256","internalType":"uint256"}],"outputs":[{"name":"","type":"bool","internalType":"bool"}],"stateMutability":"nonpayable"},{"type":"function","name":"verifierAddress","inputs":[],"outputs":[{"name":"","type":"address","internalType":"address"}],"stateMutability":"view"},{"type":"function","name":"withdraw","inputs":[{"name":"wad","type":"uint256","internalType":"uint256"}],"outputs":[],"stateMutability":"nonpayable"},{"type":"event","name":"Approval","inputs":[{"name":"owner","type":"address","indexed":true,"internalType":"address"},{"name":"spender","type":"address","indexed":true,"internalType":"address"},{"name":"value","type":"uint256","indexed":false,"internalType":"uint256"}],"anonymous":false},{"type":"event","name":"Deposit","inputs":[{"name":"dst","type":"address","indexed":true,"internalType":"address"},{"name":"wad","type":"uint256","indexed":false,"internalType":"uint256"}],"anonymous":false},{"type":"event","name":"Transfer","inputs":[{"name":"from","type":"address","indexed":true,"internalType":"address"},{"name":"to","type":"address","indexed":true,"internalType":"address"},{"name":"value","type":"uint256","indexed":false,"internalType":"uint256"}],"anonymous":false},{"type":"event","name":"Withdrawal","inputs":[{"name":"src","type":"address","indexed":true,"internalType":"address"},{"name":"wad","type":"uint256","indexed":false,"internalType":"uint256"}],"anonymous":false},{"type":"error","name":"ERC20InsufficientAllowance","inputs":[{"name":"spender","type":"address","internalType":"address"},{"name":"allowance","type":"uint256","internalType":"uint256"},{"name":"needed","type":"uint256","internalType":"uint256"}]},{"type":"error","name":"ERC20InsufficientBalance","inputs":[{"name":"sender","type":"address","internalType":"address"},{"name":"balance","type":"uint256","internalType":"uint256"},{"name":"needed","type":"uint256","internalType":"uint256"}]},{"type":"error","name":"ERC20InvalidApprover","inputs":[{"name":"approver","type":"address","internalType":"address"}]},{"type":"error","name":"ERC20InvalidReceiver","inputs":[{"name":"receiver","type":"address","internalType":"address"}]},{"type":"error","name":"ERC20InvalidSender","inputs":[{"name":"sender","type":"address","internalType":"address"}]},{"type":"error","name":"ERC20InvalidSpender","inputs":[{"name":"spender","type":"address","internalType":"address"}]},{"type":"error","name":"InvalidBlockHeader","inputs":[{"name":"expectedBlockHash","type":"bytes32","internalType":"bytes32"},{"name":"actualBlockHash","type":"bytes32","internalType":"bytes32"},{"name":"blockHeaderRLP","type":"bytes","internalType":"bytes"}]},{"type":"error","name":"TransferFailed","inputs":[{"name":"data","type":"bytes","internalType":"bytes"}]},{"type":"error","name":"UnknownBlock","inputs":[{"name":"blockNumber","type":"uint256","internalType":"uint256"}]}],"bytecode":{"object":"0x608060405234801561001057600080fd5b5060405161109d38038061109d83398101604081905261002f91610221565b60405180606001604052806023815260200161107a60239139604080518082019091526008815267455448455245554d60c01b6020820152600361007383826102f2565b50600461008082826102f2565b5050600580546001600160a01b0319166001600160a01b038416179055506100b233690eb344079513a13000006100b8565b506103d8565b6001600160a01b0382166100e75760405163ec442f0560e01b8152600060048201526024015b60405180910390fd5b6100f3600083836100f7565b5050565b6001600160a01b03831661012257806002600082825461011791906103b1565b909155506101949050565b6001600160a01b038316600090815260208190526040902054818110156101755760405163391434e360e21b81526001600160a01b038516600482015260248101829052604481018390526064016100de565b6001600160a01b03841660009081526020819052604090209082900390555b6001600160a01b0382166101b0576002805482900390556101cf565b6001600160a01b03821660009081526020819052604090208054820190555b816001600160a01b0316836001600160a01b03167fddf252ad1be2c89b69c2b068fc378daa952ba7f163c4a11628f55a4df523b3ef8360405161021491815260200190565b60405180910390a3505050565b60006020828403121561023357600080fd5b81516001600160a01b038116811461024a57600080fd5b9392505050565b634e487b7160e01b600052604160045260246000fd5b600181811c9082168061027b57607f821691505b60208210810361029b57634e487b7160e01b600052602260045260246000fd5b50919050565b601f8211156102ed576000816000526020600020601f850160051c810160208610156102ca5750805b601f850160051c820191505b818110156102e9578281556001016102d6565b5050505b505050565b81516001600160401b0381111561030b5761030b610251565b61031f816103198454610267565b846102a1565b602080601f831160018114610354576000841561033c5750858301515b600019600386901b1c1916600185901b1785556102e9565b600085815260208120601f198616915b8281101561038357888601518255948401946001909101908401610364565b50858210156103a15787850151600019600388901b60f8161c191681555b5050505050600190811b01905550565b808201808211156103d257634e487b7160e01b600052601160045260246000fd5b92915050565b610c93806103e76000396000f3fe6080604052600436106100dd5760003560e01c8063313ce5671161007f57806395d89b411161005957806395d89b4114610278578063a9059cbb1461028d578063d0e30db0146102ad578063dd62ed3e146102b557600080fd5b8063313ce567146102065780634d7fbfac1461022257806370a082311461024257600080fd5b806318bdffbb116100bb57806318bdffbb1461015c57806323b872dd146101945780632997e86b146101b45780632e1a7d4d146101e457600080fd5b806306fdde03146100e2578063095ea7b31461010d57806318160ddd1461013d575b600080fd5b3480156100ee57600080fd5b506100f76102fb565b6040516101049190610980565b60405180910390f35b34801561011957600080fd5b5061012d6101283660046109b6565b61038d565b6040519015158152602001610104565b34801561014957600080fd5b506002545b604051908152602001610104565b34801561016857600080fd5b5060055461017c906001600160a01b031681565b6040516001600160a01b039091168152602001610104565b3480156101a057600080fd5b5061012d6101af3660046109e0565b6103a7565b3480156101c057600080fd5b5061012d6101cf366004610a1c565b60066020526000908152604090205460ff1681565b3480156101f057600080fd5b506102046101ff366004610a1c565b6103cb565b005b34801561021257600080fd5b5060405160128152602001610104565b34801561022e57600080fd5b5061020461023d366004610a7e565b610486565b34801561024e57600080fd5b5061014e61025d366004610b01565b6001600160a01b031660009081526020819052604090205490565b34801561028457600080fd5b506100f761057e565b34801561029957600080fd5b5061012d6102a83660046109b6565b61058d565b61020461059b565b3480156102c157600080fd5b5061014e6102d0366004610b1c565b6001600160a01b03918216600090815260016020908152604080832093909416825291909152205490565b60606003805461030a90610b4f565b80601f016020809104026020016040519081016040528092919081815260200182805461033690610b4f565b80156103835780601f1061035857610100808354040283529160200191610383565b820191906000526020600020905b81548152906001019060200180831161036657829003601f168201915b5050505050905090565b60003361039b8185856105dc565b60019150505b92915050565b6000336103b58582856105ee565b6103c085858561066c565b506001949350505050565b6103d533826106cb565b6040516000908190339084908381818185875af1925050503d8060008114610419576040519150601f19603f3d011682016040523d82523d6000602084013e61041e565b606091505b50915091508161044c5780604051639a367e1760e01b81526004016104439190610980565b60405180910390fd5b60405183815233907f7fcf532c15f0a6db0bd6d0e038bea71d30d808c7d98cb3bf7268a95bf5081b659060200160405180910390a2505050565b60408051600080825260208201909252905085816000815181106104ac576104ac610b89565b6020908102919091010152600554604051633a94343960e21b81526001600160a01b0390911690819063ea50d0e4906104ed90879087908790600401610b9f565b602060405180830381865afa15801561050a573d6000803e3d6000fd5b505050506040513d601f19601f8201168201806040525081019061052e9190610c1a565b61056a5760405162461bcd60e51b815260206004820152600d60248201526c24b73b30b634b210383937b7b360991b6044820152606401610443565b6105743389610705565b5050505050505050565b60606004805461030a90610b4f565b60003361039b81858561066c565b6105a53334610705565b60405134815233907fe1fffcc4923d04b559f4d29a8bfc6cda04eb5b0d3c460751c2402c5c5cc9109c9060200160405180910390a2565b6105e9838383600161073b565b505050565b6001600160a01b038381166000908152600160209081526040808320938616835292905220546000198114610666578181101561065757604051637dc7a0d960e11b81526001600160a01b03841660048201526024810182905260448101839052606401610443565b6106668484848403600061073b565b50505050565b6001600160a01b03831661069657604051634b637e8f60e11b815260006004820152602401610443565b6001600160a01b0382166106c05760405163ec442f0560e01b815260006004820152602401610443565b6105e9838383610810565b6001600160a01b0382166106f557604051634b637e8f60e11b815260006004820152602401610443565b61070182600083610810565b5050565b6001600160a01b03821661072f5760405163ec442f0560e01b815260006004820152602401610443565b61070160008383610810565b6001600160a01b0384166107655760405163e602df0560e01b815260006004820152602401610443565b6001600160a01b03831661078f57604051634a1406b160e11b815260006004820152602401610443565b6001600160a01b038085166000908152600160209081526040808320938716835292905220829055801561066657826001600160a01b0316846001600160a01b03167f8c5be1e5ebec7d5bd14f71427d1e84f3dd0314c0f7b2291e5b200ac8c7c3b9258460405161080291815260200190565b60405180910390a350505050565b6001600160a01b03831661083b5780600260008282546108309190610c3c565b909155506108ad9050565b6001600160a01b0383166000908152602081905260409020548181101561088e5760405163391434e360e21b81526001600160a01b03851660048201526024810182905260448101839052606401610443565b6001600160a01b03841660009081526020819052604090209082900390555b6001600160a01b0382166108c9576002805482900390556108e8565b6001600160a01b03821660009081526020819052604090208054820190555b816001600160a01b0316836001600160a01b03167fddf252ad1be2c89b69c2b068fc378daa952ba7f163c4a11628f55a4df523b3ef8360405161092d91815260200190565b60405180910390a3505050565b6000815180845260005b8181101561096057602081850181015186830182015201610944565b506000602082860101526020601f19601f83011685010191505092915050565b602081526000610993602083018461093a565b9392505050565b80356001600160a01b03811681146109b157600080fd5b919050565b600080604083850312156109c957600080fd5b6109d28361099a565b946020939093013593505050565b6000806000606084860312156109f557600080fd5b6109fe8461099a565b9250610a0c6020850161099a565b9150604084013590509250925092565b600060208284031215610a2e57600080fd5b5035919050565b60008083601f840112610a4757600080fd5b50813567ffffffffffffffff811115610a5f57600080fd5b602083019150836020828501011115610a7757600080fd5b9250929050565b60008060008060008060808789031215610a9757600080fd5b8635955060208701359450604087013567ffffffffffffffff80821115610abd57600080fd5b610ac98a838b01610a35565b90965094506060890135915080821115610ae257600080fd5b50610aef89828a01610a35565b979a9699509497509295939492505050565b600060208284031215610b1357600080fd5b6109938261099a565b60008060408385031215610b2f57600080fd5b610b388361099a565b9150610b466020840161099a565b90509250929050565b600181811c90821680610b6357607f821691505b602082108103610b8357634e487b7160e01b600052602260045260246000fd5b50919050565b634e487b7160e01b600052603260045260246000fd5b60408152826040820152828460608301376000606084830101526000601f19601f85011682016060810160206060858403016020860152818651808452608085019150602088019450600093505b80841015610c0d5784518252938201936001939093019290820190610bed565b5098975050505050505050565b600060208284031215610c2c57600080fd5b8151801515811461099357600080fd5b808201808211156103a157634e487b7160e01b600052601160045260246000fdfea2646970667358221220d3be449f93f0684318a896d170df8bd3ecba1386894a313c595d0bed447b7bf364736f6c6343000819003349206c6f7374206d792045544820696e206120626f6174696e67206163636964656e74","linkReferences":{}},"methodIdentifiers":{"allowance(address,address)":"dd62ed3e","approve(address,uint256)":"095ea7b3","balanceOf(address)":"70a08231","decimals()":"313ce567","deposit()":"d0e30db0","name()":"06fdde03","nullifiers(bytes32)":"2997e86b","remint(uint256,bytes32,bytes,bytes)":"4d7fbfac","symbol()":"95d89b41","totalSupply()":"18160ddd","transfer(address,uint256)":"a9059cbb","transferFrom(address,address,uint256)":"23b872dd","verifierAddress()":"18bdffbb","withdraw(uint256)":"2e1a7d4d"},"id":0}